{
  "contractName": "ModifierExample",
  "abi": [
    {
      "inputs": [],
      "payable": false,
      "stateMutability": "nonpayable",
      "type": "constructor"
    },
    {
      "constant": true,
      "inputs": [],
      "name": "name",
      "outputs": [
        {
          "internalType": "string",
          "name": "",
          "type": "string"
        }
      ],
      "payable": false,
      "stateMutability": "view",
      "type": "function"
    },
    {
      "constant": false,
      "inputs": [],
      "name": "checkModifier",
      "outputs": [],
      "payable": false,
      "stateMutability": "nonpayable",
      "type": "function"
    }
  ],
  "bytecode": "0x60806040526040518060400160405280601981526020017f536f6c6964697479206d6f646966696572206578616d706c65000000000000008152506000908051906020019061004f9291906100c6565b5034801561005c57600080fd5b5033600160006101000a81548173ffffffffffffffffffffffffffffffffffffffff021916908373ffffffffffffffffffffffffffffffffffffffff16021790555060046002819055506000600360006101000a81548160ff02191690831515021790555061016b565b828054600181600116156101000203166002900490600052602060002090601f016020900481019282601f1061010757805160ff1916838001178555610135565b82800160010185558215610135579182015b82811115610134578251825591602001919060010190610119565b5b5090506101429190610146565b5090565b61016891905b8082111561016457600081600090555060010161014c565b5090565b90565b6102308061017a6000396000f3fe608060405234801561001057600080fd5b50600436106100365760003560e01c806306fdde031461003b57806365df7402146100be575b600080fd5b6100436100c8565b6040518080602001828103825283818151815260200191508051906020019080838360005b83811015610083578082015181840152602081019050610068565b50505050905090810190601f1680156100b05780820380516001836020036101000a031916815260200191505b509250505060405180910390f35b6100c6610166565b005b60008054600181600116156101000203166002900480601f01602080910402602001604051908101604052809291908181526020018280546001816001161561010002031660029004801561015e5780601f106101335761010080835404028352916020019161015e565b820191906000526020600020905b81548152906001019060200180831161014157829003601f168201915b505050505081565b6004600254146101de576040517f08c379a00000000000000000000000000000000000000000000000000000000081526004018080602001828103825260188152602001807f4e756d62657220646f6573206e6f7420657175616c203421000000000000000081525060200191505060405180910390fd5b6001600360006101000a81548160ff02191690831515021790555056fea265627a7a723158205664e1c3589126a82fe44f1d3ac48712a91113617441d382c2aa031489a312e064736f6c63430005100032",
  "source": "// SPDX-License-Identifier: MIT\r\npragma solidity >=0.4.22 <0.8.0;\r\n\r\ncontract ModifierExample {\r\n    string public name = \"Solidity modifier example\";\r\n    address owner;\r\n    uint number;\r\n    bool worked;\r\n\r\n    constructor() public {\r\n        owner = msg.sender;\r\n        number = 4;\r\n        worked = false;\r\n    }\r\n\r\n    modifier onlyFour() {\r\n        require(number == 4, \"Number does not equal 4!\");\r\n        _;\r\n    }\r\n\r\n    function checkModifier() public onlyFour {\r\n        worked = true;\r\n    }\r\n\r\n}",
  "sourcePath": "C:/Users/kstam/workspace/solidity-modifier-example/contracts/ModifierExample.sol",
  "compiler": {
    "name": "solc",
    "version": "0.5.16+commit.9c3226ce.Emscripten.clang"
  },
  "schemaVersion": "3.2.4",
  "updatedAt": "2020-09-12T00:55:34.919Z",
  "devdoc": {
    "methods": {}
  },
  "userdoc": {
    "methods": {}
  }
}